{
  "_format": "hh-sol-artifact-1",
  "contractName": "Store",
  "sourceName": "contracts/Store.sol",
  "abi": [
    {
      "inputs": [],
      "name": "get",
      "outputs": [
        {
          "internalType": "bytes",
          "name": "",
          "type": "bytes"
        }
      ],
      "stateMutability": "view",
      "type": "function"
    },
    {
      "inputs": [
        {
          "internalType": "bytes",
          "name": "payload",
          "type": "bytes"
        }
      ],
      "name": "set",
      "outputs": [],
      "stateMutability": "nonpayable",
      "type": "function"
    },
    {
      "inputs": [
        {
          "internalType": "address",
          "name": "",
          "type": "address"
        }
      ],
      "name": "store",
      "outputs": [
        {
          "internalType": "bytes",
          "name": "",
          "type": "bytes"
        }
      ],
      "stateMutability": "view",
      "type": "function"
    }
  ],
  "bytecode": "0x608060405234801561001057600080fd5b506105ac806100206000396000f3fe608060405234801561001057600080fd5b50600436106100415760003560e01c80630399321e146100465780636d4ce63c146100625780639e39db7314610080575b600080fd5b610060600480360381019061005b9190610382565b6100b0565b005b61006a610102565b6040516100779190610468565b60405180910390f35b61009a600480360381019061009591906104e8565b6101d0565b6040516100a79190610468565b60405180910390f35b81816000803373ffffffffffffffffffffffffffffffffffffffff1673ffffffffffffffffffffffffffffffffffffffff16815260200190815260200160002091906100fd929190610270565b505050565b60606000803373ffffffffffffffffffffffffffffffffffffffff1673ffffffffffffffffffffffffffffffffffffffff168152602001908152602001600020805461014d90610544565b80601f016020809104026020016040519081016040528092919081815260200182805461017990610544565b80156101c65780601f1061019b576101008083540402835291602001916101c6565b820191906000526020600020905b8154815290600101906020018083116101a957829003601f168201915b5050505050905090565b600060205280600052604060002060009150905080546101ef90610544565b80601f016020809104026020016040519081016040528092919081815260200182805461021b90610544565b80156102685780601f1061023d57610100808354040283529160200191610268565b820191906000526020600020905b81548152906001019060200180831161024b57829003601f168201915b505050505081565b82805461027c90610544565b90600052602060002090601f01602090048101928261029e57600085556102e5565b82601f106102b757803560ff19168380011785556102e5565b828001600101855582156102e5579182015b828111156102e45782358255916020019190600101906102c9565b5b5090506102f291906102f6565b5090565b5b8082111561030f5760008160009055506001016102f7565b5090565b600080fd5b600080fd5b600080fd5b600080fd5b600080fd5b60008083601f8401126103425761034161031d565b5b8235905067ffffffffffffffff81111561035f5761035e610322565b5b60208301915083600182028301111561037b5761037a610327565b5b9250929050565b6000806020838503121561039957610398610313565b5b600083013567ffffffffffffffff8111156103b7576103b6610318565b5b6103c38582860161032c565b92509250509250929050565b600081519050919050565b600082825260208201905092915050565b60005b838110156104095780820151818401526020810190506103ee565b83811115610418576000848401525b50505050565b6000601f19601f8301169050919050565b600061043a826103cf565b61044481856103da565b93506104548185602086016103eb565b61045d8161041e565b840191505092915050565b60006020820190508181036000830152610482818461042f565b905092915050565b600073ffffffffffffffffffffffffffffffffffffffff82169050919050565b60006104b58261048a565b9050919050565b6104c5816104aa565b81146104d057600080fd5b50565b6000813590506104e2816104bc565b92915050565b6000602082840312156104fe576104fd610313565b5b600061050c848285016104d3565b91505092915050565b7f4e487b7100000000000000000000000000000000000000000000000000000000600052602260045260246000fd5b6000600282049050600182168061055c57607f821691505b602082108114156105705761056f610515565b5b5091905056fea26469706673582212203ae47213e01dbb4b3d485e247c8fadc06338d5ae33995536f5c97351fc87203d64736f6c634300080b0033",
  "linkReferences": {},
  "deployedLinkReferences": {}
}